:020000020000FC
:0200000010C02E
:020008003DC0F9
:1000200045C024E02EBF2FE52DBF2FEF27BB222791
:100030002ABB21BB24E029BF25E02EBD2CE025BF33
:1000400020E82BBF00E0789429B327FFFDCF0CD028
:100050008F939F9329B385E090E03CD029B327FD8F
:10006000F9CF9F918F91F0CF8F939F931FEF00FF58
:10007000117001E190EF8EEB9DBD8CBD18BB9F917F
:100080008F9108958F939F932F932FB72F9320E8ED
:100090002ABF85E090E01ED02AB727FDF8CFE4DF25
:1000A0002F912FBF2F919F918F9118952F932FB73D
:1000B0002F9304FF08C00F7095E980E39DBD8CBDB0
:1000C000117018BB03C000E010E018BB2F912FBFC8
:1000D0002F9118958F939F9386EE93E005D09F9173
:1000E0008F910197B9F70895019700000000000073
:0600F0000000D1F70895A5
:00000001FF
