:100000000C942A000C9434000C9434000C943400AA
:100010000C9434000C9434000C9434000C94340090
:100020000C9434000C9434000C9434000C94340080
:100030000C9434000C9434000C9434000C94340070
:100040000C9434000C9434000C9434000C94340060
:100050000C94340011241FBECFE5D4E0DEBFCDBF29
:100060000E9436000C9461000C940000CF93DF9343
:100070001F92CDB7DEB71ABA8FEF84BB89B38983DD
:1000800089818770873051F089818C708C3041F084
:1000900089818871883131F080E205C080E003C039
:1000A00080E001C080E099819770973019F09981C4
:1000B000987109F48064982F907609F0806885BB68
:0600C000DDCFF894FFCF34
:00000001FF
