:020000020000FC
:0200000002C03C
:1000040015C024E02EBF2FE52DBF23E025BF20E43B
:100014002BBF78942FEF27BB24BB22272ABB0027B2
:1000240008BB88EC90E021D00395FACF8F939F937F
:100034000F932F932FB72F9320E82ABF85E090E0EA
:1000440014D02AB727FDF8CF10E008E029B3221F07
:1000540010F4110F13950A95D1F715BB2F912FBFEB
:100064002F910F919F918F9118958F939F9386EE67
:1000740093E005D09F918F910197B9F70895019767
:0C0084000000000000000000D1F708950B
:00000001FF
