:020000020000FC
:0200000010C02E
:1000200060C004E00EBF0FE50DBF04E009BF05E0AE
:100030000EBD00E0A0E6B0E00D930C9300E007BB1E
:100040000FEF0ABB00EF04BB0FEF01BB9AD078940F
:1000500011E006B30030E9F310E081E08CD08AEFC4
:1000600095E021D197E689E69DBD8CBD8EE083D0D9
:100070008AE0C5D0DBD08030C9F38F9376D08F91E2
:100080008533A1F78AE0BBD0D1D08030D9F38F93EC
:100090006CD08F918133A1F78AE0B1D0C7D0803086
:1000A000D9F38F9362D08F91823351F711E08CE0B6
:1000B00062D081E060D08AEF95E0F5D081E455D040
:1000C0008CE453D081E451D082E54FD08DE44DD003
:1000D00080E24BD08FE449D086E447D086E445D017
:1000E000B8CF0F930FB70F93113059F18CE043D075
:1000F00081E041D08AEF95E0D6D081E436D087ED1B
:1001000034D085E432D088ED30D081E42ED08EE436
:100110002CD08FE72AD080E528D081E426D080E259
:1001200024D08CE322D083E320D00FEF0BBB80E9F7
:1001300091E0AFD000950BBB84E690E0AAD000958B
:10014000F5CF0F910FBF0F9118958F9390B39F70BC
:10015000807F890F82BB939A93988F918295807F3D
:10016000890F82BB939A93980895929AEEDF8BE25F
:1001700090E099D008959298E8DF87E290E093D0DC
:10018000089588E290E085D080E382BB939A9398AB
:1001900087E290E088D080E382BB939A939887E2CD
:1001A00090E081D080E282BB939A939887E290E0BE
:1001B0007AD088E2E0DF8CE0DEDF81E0DCDF8AEF0E
:1001C00095E071D086E0D7DF089598E0990F8A9581
:1001D000E9F795BB0000000083B38F70089581E0BC
:1001E000F4DF8295B82F82E0F0DFB80F83E0EDDF17
:1001F0008295A82F84E0E9DFA80FCD010895682F2C
:10020000EEDF8F939F93862F90E043D0E8DF7F91BE
:100210006F9186239723A0E6B0E07D916C918C933B
:100220009E9370956095862397230895DC018AE25A
:10023000A0FD089580E3A1FD089583E2A2FD089545
:1002400084E4A3FD089587E3A4FD089588E3A5FD54
:10025000089589E3A6FD089583E4A7FD089584E346
:10026000B0FD089585E3B1FD089586E3B2FD0895DC
:1002700082E4B3FD089581E3B4FD089582E3B5FD02
:10028000089583E3B6FD089581E4B7FD08958827B6
:1002900008958F939F9386EE93E005D09F918F9161
:1002A0000197B9F7089501970000000000000000D1
:0402B000D1F70895E5
:00000001FF
