:020000020000FC
:1000000034E03EBF3FE53DBF30E03ABB3FEF31BBA0
:1000100071D0002711271C3309F4112704D088EE72
:1000200093E02BD0F8CF66D0212F1AD080E256D0A3
:100030008DE454D089E452D08EE450D08AE34ED07F
:10004000202F0ED003950C3310F00027139580E27B
:1000500045D083E543D085E441D083E43FD0089583
:1000600080E030E32A3018F083952A50FBCF830FCD
:1000700035D0230F822F32D008958F939F9383EF33
:1000800091E005D09F918F910197B9F7089536B30C
:1000900037FF08C0302F310F3030C9F30027112748
:1000A000C2DFF5CF30FFF3CF019700000000000062
:1000B000000000000000000051F708958F9390B3F6
:1000C0009F70807F890F82BB939A93988F918295BE
:1000D000807F890F82BB939A93980895929AEEDF5E
:1000E0008BE290E035D008959298E8DF87E290E0C7
:1000F0002FD0089588E290E021D080E382BB939ACC
:10010000939887E290E024D080E382BB939A9398FF
:1001100087E290E01DD080E282BB939A939887E2B9
:1001200090E016D088E2E0DF8CE0DEDF81E0DCDF0B
:100130008AEF95E00DD086E0D7DF08958F939F93E7
:1001400086EE93E005D09F918F910197B9F70895BE
:0E01500001970000000000000000D1F70895A4
:00000001FF
