:020000020000FC
:100000008FE58DBF94E09EBF8FEF87BB80EF84BBF1
:100010000E9452008AE046D012D08030D9F3982F47
:100020009F938AE03FD00BD08030D9F39F919133DA
:1000300021F4823311F478D0EDCF7ED0EBCFDC0108
:100040008AE2A0FD089580E3A1FD089583E2A2FD68
:10005000089584E4A3FD089587E3A4FD089588E34B
:10006000A5FD089589E3A6FD089583E4A7FD0895FD
:1000700084E3B0FD089585E3B1FD089586E3B2FD04
:10008000089582E4B3FD089581E3B4FD089582E309
:10009000B5FD089583E3B6FD089581E4B7FD0895A5
:1000A00088270895682F15D08F939F93862F90E00F
:1000B0002AD00FD07F916F9186239723A0E6B0E0DE
:1000C0007D916C918C939E93709560958623972378
:1000D000089581E00ED08295B82F82E00AD0B80F43
:1000E00083E007D08295A82F84E003D0A80FCD012C
:1000F000089598E0990F8A95E9F795BB00000000F4
:1001000083B38F7008958F939F9386EE93E005D00D
:100110009F918F910197B9F7089501970000000012
:1001200000000000D1F70895AFEFA8BB80EA9FE080
:10013000EADFAA27A8BB0895AFEFB0E1A8BB8AEF1A
:1001400090E0E1DFA095BA95B030C1F7AA27A8BB2F
:02015000089510
:00000001FF
