S00D00006578342E332E73726563A5
S11300000C942A000C9434000C9434000C943400A6
S11300100C9434000C9434000C9434000C9434008C
S11300200C9434000C9434000C9434000C9434007C
S11300300C9434000C9434000C9434000C9434006C
S11300400C9434000C9434000C9434000C9434005C
S11300500C94340011241FBECFE5D4E0DEBFCDBF25
S11300600E9436000C9498000C940000CF93DF9308
S113007000D0CDB7DEB78FEF8ABB14BA80E88BBB54
S113008020E883B38F7189838823D9F383B38F7175
S11300908A839981891740F08A81898383B38F7118
S11300A08A8399818917C0F79A81898189278983ED
S11300B0898184FD14C090E18981880F8983969594
S11300C0898184FFF9CF9430B9F028F4913039F163
S11300D09230E9F02BC0983021F0903139F520E8C6
S11300E025C0822F807C29F02295269526952370A1
S11300F01DC0220F220F1AC0822F837029F022956F
S1130100220F220F207C12C0269526950FC0222391
S113011024F4221F2227221F09C0220F07C020FF18
S113012004C027952227279501C026952BBBA9CF6C
S1070130F894FFCF6D
S9030000FC
