:020000020000FC
:100000008FE58DBF94E09EBF88278ABB84BB8FEFAE
:1000100087BBAA2789B3982F990F8F939F938078D6
:100020009078890F87FFA8609F918F91880F880F24
:10003000990F990F8F939F9380789078892B809553
:1000400087FDA4609F918F91880F880F990F990F5A
:100050008F939F9380789078892B87FDA260BA2F29
:10006000B2709F918F91880F880F990F990F8F937E
:100070009F9380789078890F87FDB1609F918F91D1
:100080008B2F86958B2380FDA160B3B3AB27A8BBD4
:02009000C0CFDF
:00000001FF
