:020000020000FC
:1000000024E02EBF2FE52DBF20E02ABB2FEF21BB20
:1000100050D01FEF09B30117E9F3102F81E043D04F
:100020008AEF95E074D00F9338E080E3001F08F466
:1000300081E333D03A95C9F70F918DE32ED08BE24F
:1000400007FD8DE22AD007FD009520E0043620F060
:1000500004562FEF81E321D080E00A3018F0839519
:100060000A50FBCF803011F4203019F020E3820FCA
:1000700014D080E3800F11D0CDCF8F9390B39F70B9
:10008000807F890F82BB939A93988F918295807F0E
:10009000890F82BB939A93980895929AEEDF8BE230
:1000A00090E035D008959298E8DF87E290E02FD075
:1000B000089588E290E021D080E382BB939A9398E0
:1000C00087E290E024D080E382BB939A939887E202
:1000D00090E01DD080E282BB939A939887E290E0F3
:1000E00016D088E2E0DF8CE0DEDF81E0DCDF8AEF43
:1000F00095E00DD086E0D7DF08958F939F9386EE2D
:1001000093E005D09F918F910197B9F708950197DA
:0C0110000000000000000000D1F708957E
:00000001FF
