:020000020000FC
:100000008F939F9386EE93E005D09F918F910197F8
:10001000B9F7089501970000000000000000D1F733
:100020000895B8E0AA2708D0A69580FD80E8A82BFF
:10003000BA95C9F78A2F0895D49ADC9882E090E0A7
:10004000E9DFD498DC988AE090E0E4DF8827CC9957
:1000500081E08F9381E390E0DDDF8F910895A82FF9
:10006000B8E08827A0FD81E004D0A695BA95C9F72D
:1000700008958F93D49ADC9882E090E0CBDF8F9143
:1000800080FDDC9A80FFDC988AE390E0C3DFD4989F
:10009000DC9881E090E0BEDF0895D49ADC9880EE91
:1000A00091E0B8DFD498DC9884E690E0B3DF89B3C0
:1000B0008F938CE791E0AEDF9F91882794FF81E0DA
:1000C00008958F9390B39F70807F890F82BB939A1E
:1000D00093988F918295807F890F82BB939A939892
:1000E0000895929AEEDF8BE290E094DF0895929863
:1000F000E8DF87E290E08EDF089588E290E080DF1D
:1001000080E382BB939A939887E290E083DF80E359
:1001100082BB939A939887E290E07CDF80E282BB77
:10012000939A939887E290E075DF88E2E0DF8EE0B3
:10013000DEDF81E0DCDF8AEF95E06CDF86E0D7DF91
:10014000089598E0990F8A95E9F795BB00000000A3
:1001500083B38F70089581E0F4DF8295B82F82E039
:10016000F0DFB80F83E0EDDF8295A82F84E0E9DFB0
:10017000A80FCD010895682FEEDF8F939F93862FF0
:1001800090E03EDFE8DF7F916F9186239723A0E622
:10019000B0E07D916C918C939E93709560958623D1
:1001A00097230895DC0185E4A0FD089580E3A1FD77
:1001B000089586E4A2FD089584E4A3FD089587E3ED
:1001C000A4FD089588E3A5FD089589E3A6FD08959B
:1001D00083E4A7FD089584E3B0FD089585E3B1FDB0
:1001E000089586E3B2FD089582E4B3FD089581E3A6
:1001F000B4FD089582E3B5FD089583E3B6FD089547
:1002000081E4B7FD08958827089520E0A0E6B0E0D6
:100210002D932C9320EF24BB8FE58DBF94E09EBFE0
:1002200020EF24BB2FEF21BB68DF24E040E050E04B
:100230000FD0582F52950CD0582B0AD0482F08D0E9
:10024000482B842F952F42D088EE93E0D9DEEDCF56
:100250008AE091DFA7DF8030D9F308951EDF80FFA9
:100260001AC08CECFCDE84E4FADEE6DE80FFFDCF13
:1002700014DF80FF10C08CECF2DE8EEBF0DED1DEFE
:100280008F93CFDE982F8F9190FF01C08A952FEF2B
:100290002ABB8BBB08959FE180E4089581E027DFAE
:1002A0008AEF95E0B7DE8EE41CDF8FE41ADF80E290
:1002B00018DF84E416DF85E614DF86E712DF89E6BF
:1002C00010DF83E60EDF85E60CDF0895282F869584
:1002D0008F939F9381E00BDF8AEF95E09BDE9F91E8
:1002E0008BE290FD8DE2FDDE90FD209530E080E018
:1002F000243628F031E081E3F4DE245680E02A3011
:1003000018F083952A50FBCF803030FF11F0805DCC
:10031000E8DE822F805DE5DE82EBE3DE83E4E1DE72
:0203200008953E
:00000001FF
