:020000020000FC
:100000008F939F9386EE93E005D09F918F910197F8
:10001000B9F7089501970000000000000000D1F733
:100020000895B8E0AA2708D0A69580FD80E8A82BFF
:10003000BA95C9F78A2F0895D49ADC9882E090E0A7
:10004000E9DFD498DC988AE090E0E4DF8827CC9957
:1000500081E08F9381E390E0DDDF8F910895A82FF9
:10006000B8E08827A0FD81E004D0A695BA95C9F72D
:1000700008958F93D49ADC9882E090E0CBDF8F9143
:1000800080FDDC9A80FFDC988AE390E0C3DFD4989F
:10009000DC9881E090E0BEDF0895D49ADC9880EE91
:1000A00091E0B8DFD498DC9884E690E0B3DF89B3C0
:1000B0008F938CE791E0AEDF9F91882794FF81E0DA
:1000C00008958FE58DBF94E09EBF04D088EE93E045
:1000D00097DFFBCFE2DF80FF1AC08CECC0DF84E447
:1000E000BEDFAADF80FFFDCFD8DF80FF10C08CEC21
:1000F000B6DF8EEBB4DF95DF8F9393DF982F8F9170
:1001000090FF01C08A952FEF2ABB8BBB08959FE11A
:0401100080E40895EA
:00000001FF
